:100000004F42505F5241572056310D0A4134203043
:1000100034203035203039203239203438203146F0
:100020000D0A3332453246360D0A38373732314100
:100030000D0A303034342030303030203030343914
:100040002030302030302030302030302030302010
:1000500030302030302030302030302030302030F0
:1000600030203030203030203030203030203030E0
:1000700020303020303020303020303020303020E0
:1000800030302030302030302030302030302030C0
:1000900030203030203030203030203030203030B0
:1000A00020303020303020303020303020303020B0
:1000B0003030203030203030203030203030203090
:1000C0003020303020303020303020303020303080
:1000D0002030302030302030302030302030302080
:1000E0003030203030203030203030203030203060
:1000F0003020303020303020303020303020303050
:10010000203030203030203030203030203030204F
:1001100030302030302030302030300D0A30303256
:100120003620303030302030303430203030203005
:10013000302030302030302030302030302030300F
:10014000203030203030203030203030203030200F
:1001500030302030302030302030302030302030EF
:1001600030203030203030203030203030203030DF
:1001700020303020303020303020303020303020DF
:1001800030302030302030302030302030302030BF
:1001900030203030203030203030203030203030AF
:1001A00020303020303020303020303020303020AF
:1001B000303020303020303020303020303020308F
:1001C000302030302030302030302030302030307F
:1001D000203030203030203030203030203030207F
:1001E00030302030302030302030300D0A30303484
:1001F000372030303030203030433820303020301D
:10020000302030302030302030302030302030303E
:10021000203030203030203030203030203030203E
:10022000303020303020303020303020303020301E
:10023000302030302030302030302030302030300E
:10024000203030203030203030203030203030200E
:1002500030302030302030302030302030302030EE
:1002600030203030203030203030203030203030DE
:1002700020303020303020303020303020303020DE
:1002800030302030302030302030302030302030BE
:1002900030203030203030203030203030203030AE
:1002A00020303020303020303020303020303020AE
:1002B000303020303020303020303020303020308E
:1002C000302030302030302030302030302030307E
:1002D000203030203030203030203030203030207E
:1002E000303020303020303020303020303020305E
:1002F000302030302030302030302030302030304E
:10030000203030203030203030203030203030204D
:10031000303020303020303020303020303020302D
:10032000302030302030302030302030302030301D
:10033000203030203030203030203030203030201D
:1003400030302030302030302030302030302030FD
:1003500030203030203030203030203030203030ED
:1003600020303020303020303020303020303020ED
:1003700030302030302030302030302030302030CD
:1003800030203030203030203030203030203030BD
:1003900020303020303020303020303020303020BD
:1003A000303020303020303020303020303020309D
:1003B000302030302030302030302030302030308D
:1003C000203030203030203030203030203030208D
:1003D000303020303020303020303020303020306D
:1003E000302030302030302030302030302030305D
:1003F000203030203030203030203030203030205D
:10040000303020303020303020303020303020303C
:10041000302030302030302030302030302030302C
:10042000203030203030203030203030203030202C
:10043000303020303020303020303020303020300C
:1004400030203030203030203030203030203030FC
:100450002030300D0A30303037203030303020300E
:100460003030342046462046462030302030300D93
:100470000A303030382030303030203030304520B5
:10048000393620303020304120304120303020308B
:10049000302046462030312030302030302030317E
:1004A0002030312030312030300D0A3030304620BD
:1004B000303030302030303042203030203030206A
:1004C000303020303020303020303020303020307C
:1004D000302030302030302030300D0A303030467F
:1004E0002030303031203030304220303020303039
:1004F000203030203030203030203030203030205C
:1005000030302030302030302030300D0A30303163
:100510003220303030302030303032203030203017
:10052000300D0A3030313320303030302030303030
:1005300036203033203030203030203346203030E9
:100540002030300D0A30303139203030303020301A
:1005500030313520303320303020303020303020E2
:1005600030302030302030302030302030302030DB
:1005700030203030203030203030203030204641A4
:1005800020303020303020303020303020303020CB
:1005900030300D0A303032332030303030203030BF
:1005A0003044203030203030203030203030203087
:1005B000302030302030302030302030302030308B
:1005C0002030302030302030300D0A3030323820AA
:1005D0003030303020303030352030302030302056
:1005E00030302030302030300D0A30303241203071
:1005F0003030302030303044203030203030203027
:10060000302030302030302030302030302030303A
:100610002030302030302030302030302030300D4D
:100620000A303032422030303030203030304520F7
:10063000303020303020303020303020303020300A
:1006400030203030203030203030203030203030FA
:100650002030302030302030300D0A30303245200C
:1006600030303030203030304220303020303020B8
:1006700031302031302030302030302030332030C5
:10068000302030302030332030340D0A30303246C4
:100690002030303030203030314120303020303088
:1006A00020303020303020303020303020303020AA
:1006B000303020303020303020303020303020308A
:1006C000302030302030302030302030302030307A
:1006D000203030203030203030203030203030207A
:1006E00030302030302030300D0A30303338203078
:1006F0003030302030303246203030203030203022
:100700003020303020303020303020303020303039
:100710002030302030302030302030302030302039
:100720003030203030203030203030203030203019
:100730003020303020303020303020303020303009
:100740002030302030302030302030302030302009
:1007500030302030302030302030302030302030E9
:1007600030203030203030203030203030203030D9
:1007700020303020303020303020303020303020D9
:1007800030302030300D0A303033442030303030BB
:1007900020303030352030302030302030302030A4
:1007A000302030300D0A30303344203030303120AA
:1007B0003030303520303020303020303020303074
:1007C0002030300D0A303033442030303032203089
:1007D0003030352030302030302030302030302064
:1007E00030300D0A30303344203030303320303058
:1007F0003035203030203030203030203030203044
:10080000300D0A3030334420303030342030303036
:100810003520303020303020303020303020303023
:100820000D0A303033442030303035203030303510
:100830002030302030302030302030302030300D2B
:100840000A303034312030303030203030313420F4
:1008500030312030462030302030302030302030D1
:1008600030203030203030203030203030203035D3
:1008700020303020303020303020303020303020D8
:1008800030302030302030302030300D0A303034DD
:100890003620303030302030303041203030203081
:1008A0003020303020303020303020303020303098
:1008B0002030302030302030300D0A3030343620B7
:1008C0003030303120303030412030302030302056
:1008D0003030203030203030203030203030203068
:1008E000302030302030300D0A3030343620303077
:1008F0003032203030304120303020303020303025
:100900002030302030302030302030302030302047
:1009100030302030300D0A30303436203030303333
:100920002030303041203030203030203030203006
:100930003020303020303020303020303020303007
:100940002030300D0A303034362030303034203012
:1009500030304120303020303020303020303020D6
:1009600030302030302030302030302030302030D7
:10097000300D0A30303436203030303520303030D1
:1009800041203030203030203030203030203030A6
:100990002030302030302030302030302030300DCA
:1009A0000A3030343620303030362030303041207C
:1009B0003030203030203030203030203030203087
:1009C000302030302030302030302030300D0A30B0
:1009D0003034362030303037203030304120303025
:1009E0002030302030302030302030302030302067
:1009F00030302030302030302030300D0A3030346C
:100A00003620303030382030303041203030203007
:100A10003020303020303020303020303020303026
:100A20002030302030302030300D0A303034362045
:100A300030303039203030304120303020303020DC
:100A400030302030302030302030302030302030F6
:100A5000302030302030300D0A3030343620303005
:100A600030412030303041203030203030203030A4
:100A700020303020303020303020303020303020D6
:100A800030302030300D0A303034362030303042B3
:100A90002030303041203030203030203030203095
:100AA0003020303020303020303020303020303096
:100AB0002030300D0A303034362030303043203092
:100AC0003030412030302030302030302030302065
:100AD0003030203030203030203030203030203066
:100AE000300D0A3030343620303030442030303051
:100AF0004120303020303020303020303020303035
:100B00002030302030302030302030302030300D58
:100B10000A303034362030303045203030304120FB
:100B20003030203030203030203030203030203015
:100B3000302030302030302030302030300D0A303E
:100B400030343620303030462030303041203030A4
:100B500020303020303020303020303020303020F5
:100B600030302030302030302030300D0A303034FA
:100B7000362030303130203030304120303020309D
:100B800030203030203030203030203030203030B5
:100B90002030302030302030300D0A3030343620D4
:100BA0003030313120303030412030302030302072
:100BB0003030203030203030203030203030203085
:100BC000302030302030300D0A3030343620303094
:100BD0003132203030304120303020303020303041
:100BE0002030302030302030302030302030302065
:100BF00030302030300D0A30303436203030313350
:100C00002030303041203030203030203030203023
:100C10003020303020303020303020303020303024
:100C20002030300D0A303034382030303030203031
:100C300030353520303020303020303020303020FA
:100C400030302030302030302030302030302030F4
:100C500030203030203030203030203030203030E4
:100C600020303020303020303020303020303020E4
:100C700030302030302030302030302030302030C4
:100C800030203030203030203030203030203030B4
:100C900020303020303020303020303020303020B4
:100CA0003030203030203030203030203030203094
:100CB0003020303020303020303020303020303084
:100CC0002030302030302030302030302030302084
:100CD0003030203030203030203030203030203064
:100CE0003020303020303020303020303020303054
:100CF0002030302030302030302030302030302054
:100D00003030203030203030203030203030203033
:100D10003020303020303020303020303020303023
:100D20002030302030302030302030302030302023
:100D300030300D0A30303530203030303020303017
:100D400030372030302030302030302030302030EC
:100D5000302030302030300D0A3030363420303002
:100D60003030203030333620384620453120303086
:100D700020303020303020303020304120303020C2
:100D8000303020314220333220303020303020309B
:100D900030203030203030203030203030203030A3
:100DA0002030302032432033322030302030302089
:100DB0003030203030203030203030203032203081
:100DC0003020333220304120313420303020303058
:100DD000203041203030203041203030203032204F
:100DE0003032203030203030203030203434204336
:100DF000382032382030412030302030462030300A
:100E00002030302030302030350D0A303036382058
:100E10003030303020303030422030302030302000
:100E20003030203030203030203030203030203012
:100E3000302030302030302030300D0A3030364312
:100E400020303030302030303442203030203030CC
:100E500020303020303020303020303020303020F2
:100E600030302030302030302030302030302030D2
:100E700030203030203030203030203030203030C2
:100E800020303020303020303020303020303020C2
:100E900030302030302030302030302030302030A2
:100EA0003020303020303020303020303020303092
:100EB0002030302030302030302030302030302092
:100EC0003030203030203030203030203030203072
:100ED0003020303020303020303020303020303062
:100EE0002030302030302030302030302030302062
:100EF0003030203030203030203030203030203042
:100F00003020303020303020303020303020303031
:100F10002030302030302030302030302030302031
:100F200030302030302030302030300D0A30303634
:100F300044203030303020303030382030302030D5
:100F400030203030203030203030203030203030F1
:100F50002030300D0A3030364520303030302030EF
:100F600030393020303020303020303020303020C8
:100F700030302030302030302030302030302030C1
:100F800030203030203030203030203030203030B1
:100F900020303020303020303020303020303020B1
:100FA0003030203030203030203030203030203091
:100FB0003020303020303020303020303020303081
:100FC0002030302030302030302030302030302081
:100FD0003030203030203030203030203030203061
:100FE0003020303020303020303020303020303051
:100FF0002030302030302030302030302030302051
:101000003030203030203030203030203030203030
:101010003020303020303020303020303020303020
:101020002030302030302030302030302030302020
:101030003030203030203030203030203030203000
:1010400030203030203030203030203030203030F0
:1010500020303020303020303020303020303020F0
:1010600030302030302030302030302030302030D0
:1010700030203030203030203030203030203030C0
:1010800020303020303020303020303020303020C0
:1010900030302030302030302030302030302030A0
:1010A0003020303020303020303020303020303090
:1010B0002030302030302030302030302030302090
:1010C0003030203030203030203030203030203070
:1010D0003020303020303020303020303020303060
:1010E0002030302030302030302030302030302060
:1010F0003030203030203030203030203030203040
:10110000302030302030302030302030302030302F
:101110002030300D0A30303645203030303120302C
:101120003039302030302030302030302030302006
:1011300030302030302030302030302030302030FF
:1011400030203030203030203030203030203030EF
:1011500020303020303020303020303020303020EF
:1011600030302030302030302030302030302030CF
:1011700030203030203030203030203030203030BF
:1011800020303020303020303020303020303020BF
:10119000303020303020303020303020303020309F
:1011A000302030302030302030302030302030308F
:1011B000203030203030203030203030203030208F
:1011C000303020303020303020303020303020306F
:1011D000302030302030302030302030302030305F
:1011E000203030203030203030203030203030205F
:1011F000303020303020303020303020303020303F
:10120000302030302030302030302030302030302E
:10121000203030203030203030203030203030202E
:10122000303020303020303020303020303020300E
:1012300030203030203030203030203030203030FE
:1012400020303020303020303020303020303020FE
:1012500030302030302030302030302030302030DE
:1012600030203030203030203030203030203030CE
:1012700020303020303020303020303020303020CE
:1012800030302030302030302030302030302030AE
:10129000302030302030302030302030302030309E
:1012A000203030203030203030203030203030209E
:1012B000303020303020303020303020303020307E
:1012C000302030302030302030302030302030306E
:1012D0002030300D0A30303646203030303020306B
:1012E0003030462030302030302030302030302038
:1012F000303020303020303020303020303020303E
:10130000302030302030302030302030302030302D
:021310000D0AC4
:00000001FF
